:020000040000FA
:060000000A128A110C280F
:10000800FE00030EF3000A08F4000A128A1195286C
:100018000A128A110F28F501F601F701F801831277
:100028000313A801A90183010A128A111B280A12C5
:100038008A115A200A128A11831203139F171F1359
:100048009F121F129F111F110C139F141E08A60048
:10005800A7012608A8002708A90007308312031360
:10006800A7007C30A600A60B3728A70B372800006E
:10007800831203139F121F129F111F150C139F1435
:100088001E08A600A7012608F5002708F600073075
:1000980083120313A7007C30A600A60B5128A70BD8
:1000A8005128000020280A128A110C2883120313F1
:1000B80085018601870188010330831603138500B3
:1000C80086011830870088010330831603178800DB
:1000D8008901831603139F018B170B1783120313D0
:1000E8008C11831603138C1583120313A001A1012D
:1000F800A20125300A128A11C5200A128A11831218
:1001080003131F141A3083120313A500F730A40039
:10011800A40B8C28A50B8C289128831203139F14F9
:100128000800831203138C1D9A289B28BE280A12E4
:100138008A11E3200A128A11F100F2017108F7000E
:100148007208F80077037804031DAB28AC28B5289B
:100158008312031328080A128A11F3200A128A113B
:10016800BB2875080A128A11F3200A128A11831211
:1001780003138C1174088A00730E8300FE0E7E0E22
:10018800090083120313A300831603138712831233
:100198000313231DD028D128D72822088316031338
:1001A80094008715DD282008220483160313940081
:1001B80087118312031323082104940008000A12EC
:1001C8008A11EC200A128A118312031313080800FB
:1001D80083160313141CF128F228EC280800F000F9
:0A01E800700883120313930008004F
:04400E00D4E0FFFFFC
:00000001FF
