:020000040000FA
:060000000A128A11F62F1E
:100E8800F6007608831203139300080083160313F1
:100E9800141C4F2F502F4A2F08000A128A114A2774
:100EA8000A128A118312031313080800F900831623
:100EB80003138712791D612F622F662F780894001B
:100EC80087156A2F760878049400871179087704C3
:100ED800831203139400080083120313850186010B
:100EE800870188018316031385018601083087006E
:100EF80088018316031788018901831603139F014C
:100F0800F601F701F80120300A128A115A270A124D
:100F18008A118316031318121815981683160317C7
:100F2800871567308316031399009A0183120313F8
:100F3800981718131816831603138C1683120313A5
:100F48008C1208000A128A1170270A128A110130BD
:100F58000A128A1144270A128A110A128A11512781
:100F68000A128A11FA00FB017A08F4007B08F500DE
:100F78000730FB007D30FA00FA0BC02FFB0BC02FA7
:100F880000300A128A1144270A128A110A128A1199
:100F980051270A128A11FA00FB017A08F2007B082D
:100FA800F3000730FB007D30FA00FA0BD92FFB0B5A
:100FB800D92F74088312031399000C1EE42FE52F10
:100FC800E12F720899000C1EEA2FEB2FE72F1A0861
:100FD800FA00FB017A08F0007B08F100AB2F0A1237
:100FE8008A110028F001F101F201F301F401F50181
:080FF80083010A128A11A62FE1
:04400E00D4E0FFFFFC
:00000001FF
